:020000040800F2
:100000004809002045010008D1080008F906000849
:10001000CD080008B5060008AD0A00080000000081
:10002000000000000000000000000000FF080008C1
:10003000B906000800000000FD08000801090008DA
:100040005F0100085F0100085F0100085F01000810
:100050005F0100085F0100085F0100085F01000800
:100060005F0100085F0100085F0100085F010008F0
:100070005F0100085F0100085F0100085F010008E0
:100080005F0100085F0100085F0100085F010008D0
:100090005F0100085F0100085F0100085F010008C0
:1000A0005F010008A10900085F0100085F01000866
:1000B0005F0100085F0100085F0100085F010008A0
:1000C0005F0100085F0100085F0100085F01000890
:1000D0005F010008B90900085F0100085F0100081E
:1000E000BD0600085F0100085F0100085F0100080D
:1000F0005F0100085F0100085F0100085F01000860
:100100005F0100085F0100085F0100085F0100084F
:100110005F0100085F0100085F0100085F0100083F
:100120005F0100085F0100085F0100085F0100082F
:10013000DFF80CD000F01EFA00480047C517000891
:10014000480900200648804706480047FEE7FEE7CA
:10015000FEE7FEE7FEE7FEE7FEE7FEE7FEE7FEE777
:100160004109000831010008421C10F8011B002958
:10017000FBD1801A704730B50B4601460020202283
:10018000012409E021FA02F59D4205D303FA02F5A4
:10019000491B04FA02F52844151EA2F10102F1DC04
:1001A00030BD2DE9F05F0546002092469B4688460B
:1001B0000646814640241BE02846414647462246E3
:1001C00000F0F9F953465A46C01A914110D311462E
:1001D0001846224600F0E0F92D1A67EB01084F4659
:1001E00022460120002100F0D7F917EB00094E410B
:1001F000201EA4F10104DFDC484631462A4643466E
:10020000BDE8F09F2DE9FE4F804681EA0300C00F54
:100210000C46009021F0004123F00045B8EB0200AD
:10022000A94105D24046214690461C460B4602464F
:1002300023F00040104347D0270DC7F30A00C3F353
:100240000A510290401A019040286BDAC3F3130060
:1002500040F4801B0098924620B10023D2EB030AA1
:1002600063EB0B0B01985946C0F14002504600F079
:1002700093F906460D4650465946019A00F0ABF9EF
:1002800010EB08006141002487EA115284EAE77309
:100290001A4340D0009A62B3019A012A4FEA0752EA
:1002A00015DC001B61EB02014FF0004202EA07522D
:1002B000CDE90042001C41F5801132462B4600F08A
:1002C000ABF903B0BDE8F08F40462146F9E7001BCB
:1002D00061EB0201001C41F5801300185B412018FE
:1002E000A2F5001747EB030140EAD570B6196D413E
:1002F00011E06D084FEA360645EAC0754FEA07522D
:10030000001B61EB0201001C41F5801149084FEA16
:1003100030000019514132462B4603B0BDE8F04F82
:1003200000F06BB90098012240000023D0EB0202DC
:1003300063EBE073009821464FEAE074B8EB0000ED
:1003400061EB0401E9E783F000435BE781F00041E2
:1003500058E72DE9FE4F81EA030404F0004421F040
:10036000004100944FF0000B23F0004350EA0104D9
:100370005ED052EA03045BD0C3F30A54C1F30A55BA
:100380002C44A4F2F3340194A0FB0254C1F31301F2
:1003900041F48011C3F3130343F4801301FB0244BF
:1003A00000FB034E840A970A44EA815447EA8357C4
:1003B000A4FB076802958D0A05FB07854FEA932C7D
:1003C00004FB0C542705029D4FEA065847EA1637EE
:1003D000B5EB08056EEB070C870E920E47EA811706
:1003E00042EA8312A7FB0201B6EB0B0164EB0004A7
:1003F0002B0D43EA0C335E1844EB1C50DA46514691
:10040000E7FB0201C5F313044FEA0B3343EA14532D
:100410004FEA0432019C43EA0603A4F10C0402945F
:10042000009CCDE900B400F0F7F803B0BDE8F08F10
:1004300000200146F9E72DE9F04D81EA030404F0BC
:10044000004B21F0004514464FF0000A23F0004114
:1004500050EA050220D054EA01021DD0C5F30A5724
:100460000246C5F31303C1F31300C1F30A5640F467
:10047000801543F48013A7EB0608101BD64608F23C
:10048000FD3873EB050002D308F1010801E0921872
:100490005B41B8F1000F03DA00200146BDE8F08DA2
:1004A00000204FF48011064684460EE0171B73EBC4
:1004B000050705D3121B63EB050306434CEA010C49
:1004C00049084FEA300092185B4150EA0107EDD12C
:1004D00052EA030012D082EA040083EA05010843CD
:1004E00005D0101BAB4106D20122002306E00022FA
:1004F0004FF0004302E06FF0010253101AEB0600C8
:100500004CEB085110EB0A0041EB0B01BDE8F04D3C
:1005100000F073B8C1F30A52C1F3130140F2FF3384
:1005200041F480119A4202DA00200146704740F2FD
:1005300033439A42A2F2334202DC524200F03BB80B
:1005400000F02AB830B5041E71F1000404DB4FF04E
:100550000044404264EB0101141E73F1000405DB0A
:100560001C464FF00043524263EB0403994208BF1C
:10057000904230BD064C074D06E0E06840F00103B4
:1005800094E8070098471034AC42F6D3FFF7D4FD47
:100590005420000874200008202A04DB203A00FAC6
:1005A00002F1002070479140C2F1200320FA03F3CA
:1005B000194390407047202A04DB203A21FA02F0C8
:1005C0000021704721FA02F3D040C2F1200291408D
:1005D000084319467047202A06DBCB17203A41FA18
:1005E00002F043EAE07306E041FA02F3D040C2F1C0
:1005F0002002914008431946704710B5141E73F14C
:10060000000408DA401C41F1000192185B411A43D2
:1006100001D120F0010010BD2DE9F04D92469B461E
:1006200011B1B1FA81F202E0B0FA80F220329046C4
:10063000FFF7B2FF04460F4640EA0A0041EA0B0109
:1006400053465A46084313D0114653EA010019D0C5
:10065000C8F140025046FFF7AEFF05460E46504631
:1006600059464246FFF798FF084305D0012004E0B1
:1006700020463946BDE8F08D0020054346EAE07685
:100680002C4337430A986305E40AA0EB08000022D4
:10069000FD0A44EA47540A3002D500200146E9E742
:1006A000010510196941DDE9084500196941BDE8F6
:1006B000F04DA2E700BFFEE77047000010B54FF411
:1006C000005000F0E7FE10B1002000F0B3FF04A0DE
:1006D00000F0EEF94FF4005000F0D6FE10BD00001F
:1006E0000D0A20616E6A69616E20616E7869616CC5
:1006F0006520200D0A00000000BFFEE770B505462A
:100700002C464D480079012817D1DC2C15D0DD2C62
:1007100013D0002148480E30484A127800EB82007E
:100720004180454801880E30444A127820F8221052
:1007300000204349088040490871C02C06D0DB2CBA
:1007400007D0DC2C09D0DD2C37D11EE000F07CF87E
:1007500070BD0120384908713FE037480079012811
:1007600003D1C02400203449087135480088401C5A
:1007700033490880304880682F49098844542E48FE
:100780000088401C2C49088027E02B48007901286C
:1007900003D1DB2400202849087129480088401C27
:1007A00027490880244880682349098844542248FE
:1007B0000088401C204908800FE021480088401C28
:1007C0001F4908801C4880681B49098844541A48FE
:1007D0000088401C1849088000BF00BF16480088E8
:1007E00015498989884204D10020134908800120D5
:1007F00048801148408801281BD10F4801880E30DD
:10080000104A127830F82200814212D100210A48A1
:100810000E300C4A127800EB8200418009490978B9
:10082000481CC11700EB11710911A0EB0111054A19
:10083000117000BF8CE70000F8040020BC0000200D
:10084000BE000020BD0000201C480088A8B31B4843
:1008500001881B481B4A127800EB8200418019492D
:100860000978481CC11700EB11710911A0EB0111A7
:10087000144A11701046007813490978884211D142
:1008800000210F48104A127800EB820041800E4987
:100890000978481CC11700EB11710911A0EB011177
:1008A000094A117006480E3801880E30054A127840
:1008B00020F822100020014908807047BE00002067
:1008C00006050020BC000020BD00002000BFFEE7A0
:1008D0007047000010B5002807DA0A07140E054A11
:1008E00000F00F031B1FD45403E00A07130E024A43
:1008F000135410BD18ED00E000E400E070477047AD
:100900000D4801684068491C40F100000A4A116026
:100910005060104601684068002251405040014339
:1009200008D1064802684068521C40F100000349A3
:100930000A604860704700000000002008000020A6
:1009400010B50D48006840F001000B490860002018
:100950004860C862084600680849084006490860BF
:100960004FF41F0088600846006820F4802008606B
:1009700001F002F910BD000000100240FFFFF6FE7A
:1009800010B54FF4C06000F089FF01F0F9F801F0F4
:1009900034FB01F02CFB01F041FB01F039FB10BDF1
:1009A00010B50121034801F013FA0121014801F0BB
:1009B0000BFA10BD002C014010B500241D491E4843
:1009C00001F0E9FA18B31B491B4801F0D7FA4FF4BC
:1009D0004171194801F0C5FA0120184908701648FC
:1009E00001F04CFAC4B2164801880088401C144A31
:1009F0001080144844542046FFF780FE10480088B9
:100A000011490968884202D300200D4908800F4926
:100A1000094801F0C0FA58B10C49074801F0AEFA94
:100A20004FF44171044801F08FFA01200849087021
:100A300010BD000005030500003801403000002013
:100A40003E000020C40000204000002004030400F9
:100A5000310000200FB410B5B4B0002437A80090C6
:100A6000C92101A8009B369A00F02AF80EE0204622
:100A7000621CD4B201AA115C0B4801F004FA00BF59
:100A80000621094801F051FA0028F9D0C82C04DAEF
:100A900001A8FFF769FBA042E9D80020009034B01C
:100AA00010BC5DF814FB00000044004000BFFEE7EE
:100AB000014A024900F0D8B8B9140008C00000206B
:100AC0007CB5491E1C461546CDE90001044B6A461B
:100AD0002146284600F0DAF8009A002111707CBD0A
:100AE000BB13000802E008C8121F08C1002AFAD18F
:100AF00070477047002001E001C1121F002AFBD19E
:100B0000704700002DE9FF5FDDE90220010DDDF8EF
:100B100038B0024318D044F61050A1F2FF314143DF
:100B20000D140F98012820D0A5EB0B00401C5FEAA4
:100B3000000A4FF00004474EDFF81C91A0465046D3
:100B400016D5CAF1000728E00F98012443A2012816
:100B500008D0002100980F9BC0E90021C0E90243A2
:100B6000BDE8FF9F6FEA0B01F4E7CBF10000DEE781
:100B7000074612E0F80707D022463346404649466A
:100B8000FFF7E7FB80468946224633461046194662
:100B9000FFF7DFFB04460E467F10002FEAD1DDE9A8
:100BA0000201BAF1000F42464B4602DAFFF7D1FBD1
:100BB00001E0FFF740FC04460E460022284BFFF7F9
:100BC000C1FC03D84FF0FF30014607E00022254B5F
:100BD00020463146FFF716FBFFF79CFC102409E086
:100BE000002C0ADB0A220023FFF7DBFA019B3032DC
:100BF0001A55641E50EA0102F2D1641C019AC4F134
:100C0000110314440F9A012A03D0012208430DD185
:100C10000AE0084304D000204FF0110B0F9080E74A
:100C2000A3EB0B056D1E0DE05B4504DD4FF00002EC
:100C300005F1010504E003DA4FF00002A5F101051A
:100C4000002AECD000980F99C0E90231C0E90045B4
:100C500086E70000000024400000F03F3000000064
:100C60000000F0430000E03F2DE9F04116460F463A
:100C70000446002503E03946B047641C6D1C20780B
:100C80000028F8D12846BDE8F08100002DE9FF4F8B
:100C900095B09B468946064600250FE2252877D168
:100CA00000242746F84A0121059400E0044316F881
:100CB000013F203B01FA03F01042F7D130782A2897
:100CC00011D06FF02F033078A0F13002092A16D826
:100CD000059A44F0020402EB820203EB4202104444
:100CE000761C0590EFE759F8042B0592002A03DAE9
:100CF000504244F40054059044F00204761C3078CD
:100D00002E2816D116F8010F44F004042A280DD01D
:100D10006FF02F023078A0F13003092B09D807EBD0
:100D2000870302EB4303C718761CF3E759F8047BEB
:100D3000761C30786C280FD006DC4C2817D0682839
:100D40000DD06A2814D104E0742810D07A280FD16D
:100D50000DE044F400140AE044F4801401E044F48B
:100D600040147278824202D104F58014761C761CFD
:100D7000307866280BD013DC582877D009DC00289F
:100D800075D04528F6D04628F4D047281AD19DE1E1
:100D900018E0632835D0642879D0652812D195E110
:100DA000702873D008DC6728F1D069286FD06E28CE
:100DB0000DD06F2806D1B5E073282CD0752875D0DA
:100DC000782874D05A46179990476D1C75E1C4F382
:100DD0000250022809D003280DD0D9F800100428A9
:100DE0000DD00D6009F1040967E1D9F80010EA1788
:100DF000C1E90052F6E7D9F800100D80F2E70D7056
:100E0000F0E719F8041B8DF8001000208DF80100A0
:100E1000EA46012003E059F804AB4FF0FF306107C8
:100E20004FF0000102D40DE008F101018846B942FB
:100E30000FDA8045F8DB1AF808100029F4D108E031
:100E400008F1010188468142FADB1AF808100029EE
:100E5000F6D105985B46A0EB080721463846179A5D
:100E600000F094FA284400EB080507E04DE029E182
:100E70000DE01AF8010B5A4617999047B8F101088E
:100E8000F7D25B4621463846179A13E142E00A2220
:100E90000092C4F302524FF0000A022A08D059F817
:100EA00004CB032A4FEAEC710AD00DE029E02AE0D6
:100EB00009F1070121F00702F2E802C1914609E0B9
:100EC0000FFA8CFC4FEAEC71042A03D14FFA8CFC28
:100ED0004FEAEC71002907DA0A460021DCF1000C28
:100EE00061EB02012D2202E0220504D52B228DF8B0
:100EF0000420012203E0E20701D02022F7E7904618
:100F000059E00A2102E010220DE010214FF0000A02
:100F100000910BE010224FF0000A44F0040408276F
:100F2000009203E008224FF0000A0092C4F302523C
:100F3000022A05D059F804CB0021032A08D009E081
:100F400009F1070121F00702F2E802C1914605E02C
:100F50001FFA8CFC042A01D10CF0FF0C4FF00008A2
:100F6000220728D5702806D0009B83F0100353EA8F
:100F70000A0305D00EE040228DF80420012208E08B
:100F80005CEA010206D030228DF804208DF80500BD
:100F900002229046009B83F0080353EA0A030AD119
:100FA0005CEA010201D1620705D530228DF80420E8
:100FB0004FF001087F1E582804D034A003900EA8DB
:100FC00002900DE036A0F9E753466046009AFFF71D
:100FD000E8F884460398825C0298401E02900270F2
:100FE0005CEA0100F0D1029806A9081A00F1200A73
:100FF000600702D524F4803400E00127574502DD64
:10100000A7EB0A0000E0002000EB0A010090059821
:101010004144401A0590E00306D45B462146179AE6
:10102000059800F0B3F90544002706E001A85A46E8
:10103000C05D179990476D1C7F1C4745F6DBE003A8
:101040000CD55B462146179A059800F09FF9054498
:1010500004E030205A46179990476D1C0099481EAD
:1010600000900029F5DC08E0029802995A460078C1
:10107000491C0291179990476D1CBAF10001AAF121
:10108000010AF1DC65E1000009280100303132334A
:1010900034353637383961626364656600000000B4
:1010A000303132333435363738394142434445469E
:1010B0000000000000F058F90544761C3078002844
:1010C0007FF4ECAD19B02846BDE8F08F620700D47C
:1010D000062709F1070222F0070CFCE80223E1468B
:1010E00003F000485FEA080C02D00FF2702C0DE00C
:1010F0005FEA045C02D50FF2682C07E05FEAC47C6B
:1011000002D00FF2602C01E0AFF2700C4FF0FF380C
:1011100023F00043CDF850C065280CD006DC4528EC
:1011200009D046281DD047283DD13DE0662818D07B
:1011300067287ED138E00021112F01DB112000E06B
:10114000781CCDE9000106A90EA8FFF7DBFCDDE95C
:101150000F010E9A03910021009207F1010A0491F8
:101160004DE04FF000400097CDE9011006A90EA810
:10117000FFF7C8FCDDE90F0203920E9B11990022D4
:10118000DDF80CA00093049211B9791C00EB010A60
:10119000B7EB0A0004D4C0F1FF3007F1010A049054
:1011A000AAEB0700019044E0012F00DA012700219B
:1011B000112F01DD112000E03846CDE9000106A91C
:1011C0000EA8FFF79FFCDDE90F010E9A03910021A5
:1011D00004910092BA4621070CD40399514500DAD4
:1011E0008A46BAF1010F05DD009AAAF10101515CAE
:1011F000302908D0B84202DA10F1040F06DA0121D2
:10120000CDE9011015E0AAF10101E9E7002805DCAC
:10121000049901440491AAEB000102E0411C5145EC
:1012200000DD8A460499401A401C01904FF00040AE
:101230000290200704D40198504501DBCDF80480CA
:1012400000208DF84F0002980DF14F07B0F1004FCC
:1012500025D02B200E9002984FF0020800280CDABF
:10126000404202902D200E9007E00A210298FEF7DE
:1012700082FF3031029007F8011DB8F10001A8F19A
:101280000108F2DC02980028EFD1791E0E98087050
:10129000307800F0200040F0450007F8020D12A859
:1012A000C01B00F107081498007800B1012000EB82
:1012B0000A01019801EBE07105984144401A401E73
:1012C0000590E00306D45B462146179A059800F086
:1012D0005DF805441498007818B15A46179990475C
:1012E0006D1CE00324D55B462146179A059800F053
:1012F0004DF805441CE00498002807DBDDE90301F4
:10130000884203DD0098405C179901E0179930206E
:101310005A469047049805F10105401C0490019835
:10132000401E019004D12E205A46179990476D1CFB
:10133000BAF10001AAF1010ADDDC05E017F8010BA2
:101340005A46179990476D1CB8F10001A8F10108A1
:10135000F4DC5B462146179A0598ABE62D000000A9
:101360002B000000200000002DE9F041044600257C
:101370001E461746880404D405E039462020B047AD
:101380006D1C641EF9D52846BDE8F0812DE9F041B9
:10139000044600251E469046C80301D5302700E0CC
:1013A0002027880404D505E041463846B0476D1C27
:1013B000641EF9D52846BDE8F0814A68002A06D0A7
:1013C0000A68531C0B6010704868401E48607047E4
:1013D00010B52C4B1B6883432A4C2360231D1B68CC
:1013E0008343241D2360231D1B688343241D236026
:1013F000231D1B688343241D236011B101290ED1D5
:1014000005E0204B1B6803431E4C236008E01D4B86
:101410001B1D1B6803431B4C241D236000E000BF01
:1014200000BF22B1012A0FD0022A27D119E0154BA3
:1014300008331B680343134C08342360231D1B68C7
:101440008343241D23601AE00E4B08331B6883433B
:101450000C4C08342360231D1B680343241D2360A8
:101460000DE0084B08331B680343064C0834236027
:10147000231D1B680343241D236000E000BF00BF41
:1014800010BD0000000401400149086070470000E1
:101490001404014001460748006800EA01020548BB
:1014A0001438006800EA010312B10BB10120704743
:1014B0000020FCE71404014070B504460D46E1B27B
:1014C000054800F0E0FC00BF0721034800F02DFDB7
:1014D0000028F9D0204670BD0038014070B505469F
:1014E00000241D48854200D103E01C48854200D1FC
:1014F00001241B4931F8140000F086FA194931F82B
:10150000140000F081FA184951F82430174951F8B5
:1015100024000322182100F0FBF8154951F824306B
:10152000124951F824000322042100F0F1F8284662
:1015300000F0AEFC4FF4E131284600F055FC0421E8
:10154000284600F044FD0821284600F048FD2846C2
:1015500000F0E6FC70BD000000380140004400408F
:101560002C00002010000020140000202400002087
:101570001C00002070B504460D46174931F81400D0
:1015800000F042FA4FF4C06000F03EFA134951F8FF
:101590002430134951F824000322042100F0B8F844
:1015A000012D17D10F49085D0022022100F024F916
:1015B0000D4A115D0D4A105D00F05EF80C4951F8BE
:1015C000240001220021FFF703FF094951F82400FC
:1015D000FFF75AFF70BD0000940000208800002033
:1015E0007C000020AE000020AB000020A8000020FE
:1015F0009C00002010B504460B4931F8140000F09F
:1016000003FA0A4951F82430094951F82400032209
:10161000102100F07DF8054850F82400044951F8E5
:101620002410486110BD00007400002064000020F8
:101630005400002070B504460A4A52F824100A4AA1
:1016400052F8240000F0B6F8C0F10100C5B2054A16
:1016500052F82410044A52F824002A4600F006F8F2
:1016600070BD000064000020540000200AB1016138
:1016700000E041617047000010B500228B071C0F8D
:101680000F2303FA04F204290EDA204B9B689343DC
:101690001E4CA36023469B688C07240F00FA04F4B9
:1016A00023431A4CA3602FE008290EDA174BDB689E
:1016B0009343164CE3602346DB688C07240F00FA43
:1016C00004F42343114CE3601EE00C290EDA0F4BA7
:1016D0001B6993430D4C236123461B698C07240F20
:1016E00000FA04F42343094C23610DE0074B5B69C6
:1016F0009343064C636123465B698C07240F00FA11
:1017000004F42343014C636110BD0000000001405C
:10171000F0B50C4616460025002204F00F0504F033
:10172000100747B1042E05D145F00305C76B1F43D1
:10173000C76300E03543002118E001278F401F40B8
:1017400097B102684FEA810C0F2707FA0CF7BA43EA
:101750008F0005FA07F73A43282C01D1436102E0D4
:10176000482C00D1036102604F1CB9B20829E4D3B0
:1017700008211CE001278F401F40B7B14268A1F14A
:1017800008074FEA870C0F2707FA0CF7BA43A1F1B5
:101790000807BF0005FA07F73A43282C01D1436137
:1017A00002E0482C00D1036142604F1CB9B21029FD
:1017B000E0D3F0BD02469068084008B101207047B0
:1017C0000020FCE7FFF7DCF802A0FFF743F900BFB9
:1017D000FEE700000D0A20C8EDBCFEBFAACABCC1CE
:1017E000CB200D0A0000000010B5012200211920B5
:1017F00000F002F810BD0000F0B50B4600210024F7
:101800000025244E366806F4E066B6F5E06F02D196
:1018100000BF042526E01F4E366806F4E066B6F5E4
:10182000C06F02D1012403251CE01A4E366806F46D
:10183000E066B6F5A06F02D10224022512E0154E33
:10184000366806F4E066B6F5806F02D10324012500
:1018500008E0104E366806F4E066B6F5407F01D128
:1018600004240025C4F1040603FA06F1C5F10407B7
:101870000F26FE40164031430901074E315400F057
:101880001F070126BE404711BF0007F1E027C7F838
:101890000061F0BD0CED00E000E400E0024901430E
:1018A000024A1160704700000000FA050CED00E0EC
:1018B0002DE9F04F8CB0074600200A904AA090E82E
:1018C000004CC068CDE905BECDF810A007900FF21E
:1018D0001C1ADAE9000ACDE9020A0FF2101ADAE955
:1018E000000ACDE9000A44484068C0F381000B902B
:1018F0000B9820B1012804D002283FD103E03F4AD1
:101900003EE03E4A3CE03C48406800F4803CBCF588
:10191000803F12D13848C06A00F08048B8F1000F0B
:1019200001D1364C00E0364C3348406800F40039B1
:10193000B9F5003F02D1334C00E0324C2E484068EC
:10194000C0F383412C48406800F0006008B141F0CA
:1019500010012948406800F0804008B141F02001A2
:101960000F2901D2891C06E00F2903D33E2901D893
:10197000491C00E03F2104FB01F201E01F4A00BFC7
:1019800000BF1D484068C0F3031504A8465D22FA55
:1019900006F319484068C0F3022502A8465D23FA01
:1019A00006F0099014484068C0F3C2251DF8056090
:1019B00023FA06F0089037B1012F06D0022F06D087
:1019C000032F0AD106E00A9208E00A9306E009987C
:1019D0000A9003E008980A9000E000BF00BF0A9850
:1019E0000CB0BDE8F08F0000000000000000000017
:1019F00001020304060708090010024000127A00E1
:101A0000006CDC0200093D00064A02EB90110968F7
:101A100000F01F0301229A401143024B03EB901286
:101A20001160704700100240064A02EB90110968ED
:101A300000F01F0301229A409143024B03EB9012E6
:101A40001160704700100240064A02EB90110968CD
:101A500000F01F0301229A401143024B03EB901246
:101A60001160704700100240002000213E4A1268B9
:101A700042F480323C4B1A6000BF401C3A4A126864
:101A800002F4003111B9B0F5006FF6D1364A126890
:101A900002F400320AB900BFFEE7334AD26942F0CD
:101AA0008052314BDA61314A126842F440422F4B86
:101AB0001A602D4A52682C4B5A601A4652685A6076
:101AC0001A46526842F480625A601A46526822F4FA
:101AD00040325A601A46526842F440325A601A46FE
:101AE0005268234B1A40204B5A601A465268214BC9
:101AF0001A431D4B5A601A46126842F080721A60EF
:101B000000BF194A126802F00072002AF9D0174A81
:101B1000126842F48032154B1A6000BF134A5268B3
:101B200002F48032002AF9D0104A126842F40032DE
:101B30000E4B1A6000BF0D4A526802F40032002AB0
:101B4000F9D0094A526822F00302074B5A601A463C
:101B5000526842F002025A6000BF034A526802F023
:101B60000802002AF9D070470010024000700040BF
:101B7000FFFFC3B70000340810B5FFF775FF10BDB5
:101B800010B5124800684FF47A71B0FBF1F4601E92
:101B9000B0F1807F01D301200FE0601E4FF0E02103
:101BA00048610F214FF0FF30FEF794FE00204FF008
:101BB000E021886107200861002008B100BFFEE72E
:101BC0000021481EFEF786FE10BD0000B400002074
:101BD000016841F080010160704700001FB540F2CC
:101BE0000B60FFF711FF134800F026F840F2DF10FA
:101BF000ADF800000020ADF80200ADF804004CF292
:101C0000503002900020ADF80C008DF80E006946AF
:101C1000084800F085F80121064800F0D1F880213D
:101C2000044800F0C9F80348FFF7D2FF014800F06C
:101C300071F81FBD002C014010B504463349601AED
:101C40008C4244D00CDCB4F1804F1CD0304820448E
:101C500010B3B0F5806F28D0B0F5006F52D12DE0F1
:101C6000B0F5806F3CD0B0F58E3F03D0B0F5923F19
:101C700048D13EE040F20B30FFF7E6FE40F20B3079
:101C8000FFF7D2FE3FE04FF48060FFF7DDFE4FF438
:101C90008060FFF7C9FE36E040F20140FFF7D4FE56
:101CA00040F20140FFF7C0FE2DE040F20240FFF796
:101CB000CBFE40F20240FFF7B7FE24E040F20340C3
:101CC000FFF7C2FE40F20340FFF7AEFE1BE040F21A
:101CD0000440FFF7B9FE40F20440FFF7A5FE12E012
:101CE00040F20540FFF7B0FE40F20540FFF79CFED2
:101CF00009E040F20D30FFF7A7FE40F20D30FFF78C
:101D000093FE00E000BF00BF10BD000000100040C7
:101D100000FCFFBF016841F0010101607047000055
:101D20000A8882621D4A90420ED0B0F1804F0BD0DB
:101D30001B4A904208D01B4A904205D01A4A904252
:101D400002D01A4A90420BD1026822F0700202605F
:101D500002684B881A43026002688B881A4302604B
:101D60008A68C262124A90420AD0124A904207D050
:101D7000026822F44072026002688B891A43026092
:101D8000064A904202D0094A904201D18A7B0263FE
:101D9000426942F00102426170470000002C01409C
:101DA0000004004000080040000C004000340140E6
:101DB0000010004000140040C2688A43C2607047AF
:101DC000C2680A43C260704702698A430261704771
:101DD0000246D06800EA01031069084010B10BB157
:101DE000012070470020FCE72DE9F04704460D462E
:101DF0000027B946B84600261E49601A8C421CD0FE
:101E000006DC1D48204470B1B0F5806F1FD10FE093
:101E1000B0F5806F16D0B0F56C4F18D10320FFF7E6
:101E200047FD074614E00220FFF742FD07460FE09A
:101E30000220FFF73DFD07460AE00220FFF738FDCC
:101E4000074605E00220FFF733FD074600E000BF2C
:101E500000BF07EB5500B0FBF5F64FF6F07006EA51
:101E6000000906F00F08A16849EA08000143A160D3
:101E7000BDE8F087004C004000BCFFBF0146486849
:101E8000C0F308007047C1F30802426070470000C9
:101E900010B504462049601A8C4228D006DC1F4841
:101EA000204490B1B0F5806F33D117E0B0F5806F6A
:101EB00026D0B0F56C4F2CD140F20E30FFF7C4FDA8
:101EC00040F20E30FFF7B0FD24E040F21140FFF782
:101ED000BBFD40F21140FFF7A7FD1BE040F21240AE
:101EE000FFF7B2FD40F21240FFF79EFD12E040F214
:101EF0001340FFF7A9FD40F21340FFF795FD09E0FD
:101F000040F21440FFF7A0FD40F21440FFF78CFDB3
:101F100000E000BF00BF10BD004C004000BCFFBF90
:101F2000C16841F40051C160704710B5024602EB30
:101F30009110006801F01F040123A340184008B16C
:101F4000012010BD0020FCE710B5C1F389128258B2
:101F500001F01F040123A3409A43C1F38913C25027
:101F600010BD10B5C1F38912825801F01F0401237E
:101F7000A3401A43C1F38913C25010BD10B500EB42
:101F800091521268C1F304440123A3409A4300EB29
:101F900091531A6010BD70B5024600230024C1F3AE
:101FA0008910105801F01F060125B54000EA05030D
:101FB00002EB91500068C1F304460125B54000EAE8
:101FC000050414B10BB1012070BD0020FCE70A46E6
:101FD0000021C16821F004011143C16070470A4625
:101FE0000021C16821F008011143C160704710B59C
:101FF00001210846FFF7BEFA10BD10B50020FFF71B
:10200000F9FA0120FFF7F6FA0220FFF7F3FA10BD04
:1020100010B5FFF7E9FBFFF7E1FD10BD10B5002299
:1020200011462520FFF7E8FB0848FFF757FA084854
:10203000FFF754FA40F205310448FFF792FF4FF4DE
:1020400041710248FFF780FF10BD000000380140D9
:10205000004400407420000800000020C40000007C
:10206000E40A000838210008C400002084080000A9
:10207000F40A00080000000000000000000000005A
:10208000000000000E06110700020000040000001E
:1020900000040000080000000008014000080140A2
:1020A00002060206010100010203040506070809F1
:1020B00000000000C8000000C8000000000102038A
:1020C0000405060708090000001001400010014047
:1020D0000018014000180140010000000400000049
:1020E00001000000020000000406040606060606C1
:1020F0000008014000100140000C014001000000F8
:102100000020000000400000020604060306000054
:10211000010000000020000000400000000201005B
:102120000D0E062828000000000E27070000000002
:082130000000000000000000A7
:0400000508000131BD
:00000001FF
