:020000040800F2
:100000003012002045010008E326000835080008EA
:10001000E12600086D070008212900080000000003
:10002000000000000000000000000000E7260008BB
:10003000B107000800000000E52600085527000869
:100040005F0100085F0100085F0100085F01000810
:100050005F0100085F0100085F0100085F01000800
:100060005F0100085F0100085F0100085F010008F0
:100070005F0100085F0100085F0100085F010008E0
:100080005F0100085F0100085F0100085F010008D0
:100090005F0100085F0100085F0100085F010008C0
:1000A0005F010008712800085F0100085F01000877
:1000B0005F0100085F0100085F0100085F010008A0
:1000C0005F0100085F0100085F0100085F01000890
:1000D0005F0100088D2800085F0100085F0100082B
:1000E000B50700085F0100085F0100085F01000814
:1000F0005F0100085F0100085F0100085F01000860
:100100005F0100085F0100085F0100085F0100084F
:100110005F0100085F0100085F0100085F0100083F
:100120005F0100085F0100085F0100085F0100082F
:10013000DFF80CD000F030FA004800479136000894
:10014000301200200648804706480047FEE7FEE7D9
:10015000FEE7FEE7FEE7FEE7FEE7FEE7FEE7FEE777
:100160008527000831010008D2B201E000F8012B18
:10017000491EFBD270470022F6E710B513460A4627
:1001800004461946FFF7F0FF204610BD421C10F848
:10019000011B0029FBD1801A704730B50B46014680
:1001A00000202022012409E021FA02F59D4205D316
:1001B00003FA02F5491B04FA02F52844151EA2F1C0
:1001C0000102F1DC30BD2DE9F05F054600209246CA
:1001D0009B4688460646814640241BE02846414609
:1001E0004746224600F0F9F953465A46C01A914153
:1001F00010D311461846224600F0E0F92D1A67EB9D
:1002000001084F4622460120002100F0D7F917EBE4
:1002100000094E41201EA4F10104DFDC48463146AE
:100220002A464346BDE8F09F2DE9FE4F804681EA0D
:100230000300C00F0C46009021F0004123F0004560
:10024000B8EB0200A94105D24046214690461C4623
:100250000B46024623F00040104347D0270DC7F35A
:100260000A00C3F30A510290401A019040286BDA49
:10027000C3F3130040F4801B0098924620B1002382
:10028000D2EB030A63EB0B0B01985946C0F1400215
:10029000504600F093F906460D4650465946019ADD
:1002A00000F0ABF910EB08006141002487EA11521D
:1002B00084EAE7731A4340D0009A62B3019A012A94
:1002C0004FEA075215DC001B61EB02014FF00042C0
:1002D00002EA0752CDE90042001C41F58011324686
:1002E0002B4600F0ABF903B0BDE8F08F4046214645
:1002F000F9E7001B61EB0201001C41F580130018B7
:100300005B412018A2F5001747EB030140EAD570C6
:10031000B6196D4111E06D084FEA360645EAC07521
:100320004FEA0752001B61EB0201001C41F58011EE
:1003300049084FEA30000019514132462B4603B0BC
:10034000BDE8F04F00F06BB9009801224000002397
:10035000D0EB020263EBE073009821464FEAE074B1
:10036000B8EB000061EB0401E9E783F000435BE7D1
:1003700081F0004158E72DE9FE4F81EA030404F0C3
:10038000004421F0004100944FF0000B23F00043A3
:1003900050EA01045ED052EA03045BD0C3F30A546E
:1003A000C1F30A552C44A4F2F3340194A0FB025487
:1003B000C1F3130141F48011C3F3130343F4801319
:1003C00001FB024400FB034E840A970A44EA81546D
:1003D00047EA8357A4FB076802958D0A05FB07854A
:1003E0004FEA932C04FB0C542705029D4FEA065854
:1003F00047EA1637B5EB08056EEB070C870E920E31
:1004000047EA811742EA8312A7FB0201B6EB0B0110
:1004100064EB00042B0D43EA0C335E1844EB1C50D4
:10042000DA465146E7FB0201C5F313044FEA0B33EA
:1004300043EA14534FEA0432019C43EA0603A4F151
:100440000C040294009CCDE900B400F0F7F803B06E
:10045000BDE8F08F00200146F9E72DE9F04D81EA73
:10046000030404F0004B21F0004514464FF0000A4D
:1004700023F0004150EA050220D054EA01021DD0C9
:10048000C5F30A570246C5F31303C1F31300C1F3C2
:100490000A5640F4801543F48013A7EB0608101B9E
:1004A000D64608F2FD3873EB050002D308F10108C7
:1004B00001E092185B41B8F1000F03DA0020014619
:1004C000BDE8F08D00204FF48011064684460EE012
:1004D000171B73EB050705D3121B63EB05030643DC
:1004E0004CEA010C49084FEA300092185B4150EA8F
:1004F0000107EDD152EA030012D082EA040083EA38
:100500000501084305D0101BAB4106D20122002390
:1005100006E000224FF0004302E06FF001025310AA
:100520001AEB06004CEB085110EB0A0041EB0B01F3
:10053000BDE8F04D00F073B8C1F30A52C1F31301E6
:1005400040F2FF3341F480119A4202DA0020014662
:10055000704740F233439A42A2F2334202DC5242E5
:1005600000F03BB800F02AB830B5041E71F1000469
:1005700004DB4FF00044404264EB0101141E73F1B0
:10058000000405DB1C464FF00043524263EB0403BA
:10059000994208BF904230BD064C074D06E0E06826
:1005A00040F0010394E8070098471034AC42F6D3BA
:1005B000FFF7C2FD2440000844400008202A04DB65
:1005C000203A00FA02F1002070479140C2F1200366
:1005D00020FA03F3194390407047202A04DB203AA5
:1005E00021FA02F00021704721FA02F3D040C2F153
:1005F00020029140084319467047202A06DBCB179A
:10060000203A41FA02F043EAE07306E041FA02F3CD
:10061000D040C2F12002914008431946704710B5FE
:10062000141E73F1000408DA401C41F10001921815
:100630005B411A4301D120F0010010BD2DE9F04DBE
:1006400092469B4611B1B1FA81F202E0B0FA80F213
:1006500020329046FFF7B2FF04460F4640EA0A00F8
:1006600041EA0B0153465A46084313D0114653EA58
:10067000010019D0C8F140025046FFF7AEFF054611
:100680000E46504659464246FFF798FF084305D0AC
:10069000012004E020463946BDE8F08D00200543E6
:1006A00046EAE0762C4337430A986305E40AA0EB58
:1006B00008000022FD0A44EA47540A3002D500200F
:1006C0000146E9E7010510196941DDE9084500190E
:1006D0006941BDE8F04DA2E770B58C1810F8015BD8
:1006E00015F0070301D110F8013B2A1106D110F8CB
:1006F000012B03E010F8016B01F8016B5B1EF9D1CF
:100700002B0705D40023521E0DD401F8013BFAE754
:1007100010F8013BCB1A921C03E013F8015B01F8BF
:10072000015B521EF9D5A142D8D3002070BD000054
:1007300010B5014602A002F0C9F8002010BD00006B
:100740000D0A204272696768746E6573734272693C
:100750006768746E6573734374726C46756E63205C
:1007600076616C203D202564200D0A00FEE7000024
:1007700010B5014602A002F0A9F8002010BD00004B
:100780000D0A20436F6D6D6F6E45786563757469F2
:100790006F6E31416374696F6E4374726C46756E2F
:1007A000632076616C203D202564200D0A00000046
:1007B0007047000010B54FF4005002F0BBFD002858
:1007C0001CBF002002F0B8FE04A002F0C7F8BDE88C
:1007D00010404FF4005002F0A7BD00000D0A206148
:1007E0006E6A69616E20616E7869616C6520200DAA
:1007F0000A00000010B5014602A002F067F80020D0
:1008000010BD00000D0A204661646554696D655491
:10081000696D654374726C46756E632076616C20F9
:100820003D202564200D0A00014908684968704789
:1008300000000020FEE70000002A14BF002B7047D4
:100840002DE9F04186B010464FF0000C06293DD04E
:100850000CDC042934D005291CBF06B0BDE8F081AA
:10086000194606B0BDE8F04101F066BBB1F5005F86
:1008700055D0091FB1F5005F1CBF06B0BDE8F0817F
:10088000CDF804C0CDF808C0CDF80CC0CDF810C02C
:1008900001AA1946CDF814C000F075FD00281CBF50
:1008A00006B0BDE8F081059801AC009094E80F0017
:1008B00000F04CFD01A800F095FB06B0BDE8F0810A
:1008C00006B01946BDE8F04101F0E4BB14461D46F0
:1008D000032B3CBF06B0BDE8F081ADF800C069460F
:1008E00001F02EFD06281CBF06B0BDE8F081BDF862
:1008F00000606946A01901F023FD014607281CBFCE
:1009000006B0BDE8F081BDF800003044C21DAA4227
:10091000DCBF204400F01BFD06B0BDE8F0811646A8
:100920001D46032B3CBF06B0BDE8F081ADF800C00A
:100930000024002DCEBFDFF8608006B0BDE8F08156
:100940003019694601F0FCFC0746BDF8000004447C
:10095000002818BFAC42A4BF06B0BDE8F081301932
:10096000694601F0EDFCBDF8001002466018002950
:1009700018BFA842A4BF06B0BDE8F08137B9315C0A
:1009800021B1B8F80E10491EA8F80C108418AC421A
:10099000D6DB06B0BDE8F08108010020002A14BFB4
:1009A000002B70472DE9F0431546CA1F87B01C463F
:1009B0000D2A80F01482DFE802F0071147FDFCFCED
:1009C00051FBFCFAF9F8F700002201F08DFD07B0A9
:1009D00021462846BDE8F04301F05CBB002201F04F
:1009E00083FD2E46032C3CBF07B0BDE8F0830020FA
:1009F000ADF800006946284601F0A2FCBDF80050A1
:100A000000281CBF07B0BDE8F083A542A4BF07B013
:100A1000BDE8F0837019694601F092FC0146BDF80B
:100A20000000012928441CBF07B0BDE8F083A042A4
:100A3000A4BF07B0BDE8F083305C002808BF00F019
:100A400006FA07B0BDE8F083002201F04DFD07B0C3
:100A500021462846BDE8F04301F06EBA002201F0BD
:100A600043FD032C3CBF07B0BDE8F0830024009495
:100A700069462846019400F061FB002804BF07B0D6
:100A8000BDE8F083BDF800606946019800F056FBB0
:100A9000002804BF07B0BDE8F083BDF80050ADF8F2
:100AA000084002A9022000F083FB002804BF07B021
:100AB000BDE8F0830021BDF80830002B9CBF07B0D3
:100AC000BDE8F08301EB410200EB820CBCF802C0F0
:100AD000AC4504BF30F82220B24206D0491C89B28E
:100AE0009942EFD307B0BDE8F08301EB410100EB81
:100AF0008106B068002804BF07B0BDE8F083ADF8F8
:100B00000C4003A9012000F053FB88B1BDF80C2074
:100B10000021002A0CD900EB01131B88AB4203D142
:100B200000EB0110007B04E0491C89B29142F2D332
:100B30007F20022816BF012801210021D1B1BDF874
:100B40000210042916D30198039489B260B10429D4
:100B50000ADB42780178120402EB01618278C078E6
:100B600001EB022108440390B1680398884707B05D
:100B7000BDE8F08300281CBF07B0BDE8F083BDF8D6
:100B80000200002804BF07B0BDE8F083FF2884BF3F
:100B900007B0BDE8F083401C02F0A2FD050004BFD1
:100BA00007B0BDE8F08306E0B9E08EE059E01BE055
:100BB000DDE014E14FE0BDF802000021002808D973
:100BC0000198405C6854481C81B2BDF8020088421C
:100BD000F6D880B22C54B16828468847284602F0DF
:100BE000CBFB07B0BDE8F08307468846032C3CBF2B
:100BF00007B0BDE8F0830020ADF800006946284644
:100C000001F09EFBBDF80060102814D1A8196946B8
:100C100001F096FBBDF80010002831440BDD0A18E6
:100C2000A24208DC80B26A180146104600F090FB30
:100C3000B0F1FF3F07D1FF224146384601F054FC96
:100C400007B0BDE8F083C2B24146384601F04CFC23
:100C500007B0BDE8F08307B00022BDE8F04301F023
:100C600043BC07468846032C3CBF07B0BDE8F08371
:100C70004FF00009ADF800906946284601F060FB8E
:100C8000BDF800601128D6D1A819694601F058FBBB
:100C90000146BDF8000004293044CCD1011DA14219
:100CA000C9DCCDF80490281808BF01980AD0427812
:100CB0000178120402EB01618278C07801EB022115
:100CC0000844019000F059FBBDE707468846032C15
:100CD0003CBF07B0BDE8F0830020ADF800006946D6
:100CE000284601F02DFBBDF800601228A3D1A819F9
:100CF000694601F025FBBDF80010002831449ADD5B
:100D00006428DCBF0A18A24295DC80B26A1801464A
:100D1000104600F02BFBB0F1FF3F94D18BE7074664
:100D20008846032C3CBF07B0BDE8F0830020ADF837
:100D300000006946284601F003FBBDF80060132857
:100D40007FF479AFA819694601F0FAFABDF80010EE
:100D5000002831447FF76FAF0A18A2423FF76BAF0C
:100D600080B26A180146104600F0F9FA6BE7804637
:100D7000032C3CBF07B0BDE8F08300263746ADF832
:100D80000460ADF80860049604A92846059600F0B2
:100D9000D5F9002818BFBDF81060144C02A80090C7
:100DA00001AB04F108024FF48041304600F050F8E6
:100DB00000281CBF07B0BDE8F0832680BDF80800FE
:100DC00060806760BDF8040048F08003401C82B278
:100DD00021460E2000F024F907B0BDE8F08307B0EB
:100DE0001220BDE8F04300F0A3BA0000EC0400209C
:100DF000F8B514461D46064600F0F4F9221A75EBC4
:100E0000010209D2001B61EB0501B0F5FA7071F126
:100E1000000024BF0220F8BD00200090684601F0C9
:100E2000B9F90648BDF800100078B14205BF9DF839
:100E30000210814200200120F8BD0000F0000020D7
:100E400010B501F0B3F9BDE8104000F0CDB970471E
:100E50002DE9FF4F85B06248894600260490174669
:100E6000ADF8086002A9022000F0A2F98346002F25
:100E70001CBF0898002878D01298002818BFBBF132
:100E8000000F72D00024BDF80800ADF80460A2463F
:100E90002546A04600286AD908EB480005993BF88A
:100EA00020208A427ED10BEB80067088484518BF0F
:100EB000B9F5804F76D127F83400002201A901F05E
:100EC00047F9BDF8040003A9504480B20090B6F879
:100ED00002A00020ADF80C00012000F069F901002B
:100EE00011D0BDF80C200020002A0CD901EB001312
:100EF0001B88534503D101EB0010007B04E0401C2C
:100F000080B29042F2D37F2080B3012818BF02281C
:100F100007D00A2000F00CFA09B04FF0FF30BDE80E
:100F2000F08F402D07DB092000F002FA09B04FF0E6
:100F3000FF30BDE8F08F07EBC40204205080049816
:100F40007168C5F1400340190CD0042B0ADB4FEA4D
:100F5000116C80F800C00B0C43704FEA112C80F824
:100F600002C0C1702D1D50600BE01FE000E02EE0BC
:100F70007068FFF70BF9014607EBC4004180716808
:100F8000416007EBC4060022708801A901F0E0F877
:100F9000BDF8042000987188104408441FFA80FAB4
:100FA000601C00E00AE084B2502C04D909B04FF074
:100FB000FF30BDE8F08FB9F5804F08D108F101008E
:100FC0001FFA80F8BDF808008045FFF465AF089867
:100FD00004801298A0F800A009B00020BDE8F08FAE
:100FE000EC090020002808BF704770B5044600686F
:100FF000002510B102F0C0F92560606810B102F060
:10100000BBF96560A06810B102F0B6F9A560E560B3
:101010002069002808BF70BD02F0AEF9256170BDDF
:101020002DE9FF4F83B00F004FF00003DFF808B148
:1010300001A99046ADF804304FF0FF3A029103D079
:10104000B8F1000F5ED002E0B8F1000F5AD10021D4
:10105000ADF800105C465A46694601F079F8BDF8D3
:10106000005057EA08002C4408BFADF8045047D0A0
:10107000002F47D00026B8F1000F3FD937F83600CF
:10108000B0F5804F01D3032010E02246694601F0FD
:101090005FF8BDF8000007EBC60929180444B9F849
:1010A00002008DB2B0F5804F03D3042000F040F968
:1010B00028E02246694601F04BF8BDF80000D9F857
:1010C000042029188DB2B9F802100444002918BF71
:1010D000002A10D06B18B3F5207F13D80020002908
:1010E00007D912F800C004F800C0401C80B2814249
:1010F000F7D80C449DB2761C4645BFD302980580B4
:101100004FF0000ABAF1000F1CBF07B0BDE8F08F26
:10111000069840B10246BDF80410584601F0F8F9AF
:1011200007B0BDE8F08F0022BDF80410584601F06A
:10113000EFF907B0BDE8F08F6C070020002808BF6A
:1011400070472DE9F8434FF000080C46ADF80080D9
:1011500045460746694601F0F3F80646B0F1FF3F01
:1011600019D0BDF80000ADF8008007446946384644
:1011700001F0E6F8B0F1FF3F13D0BDF800100028F1
:101180003944C4BF0D46014414B1268060806560B7
:101190000846BDE8F883012000F0CAF80020BDE849
:1011A000F883022000F0C4F80020BDE8F8837047FF
:1011B00071B1002804BF052207480BD0012804BFE5
:1011C0000522064806D0022804BF0522044801D0A3
:1011D000002070470A807047043C0008403C00082B
:1011E000A8000020FFF720BB10B5002340211A46BD
:1011F000084600F075FE412100236422084600F0F5
:101200006FFE422100234FF4E162084600F068FEC1
:10121000432100234FF4E162084600F061FE002301
:101220004421BDE810401A46084600F059BE0000AF
:101230002DE9F041A2B080216846FEF79CFF7E2197
:10124000684601F099F82A4C024604F11805E07846
:10125000052824BF22B0BDE8F081DFE800F00303D9
:101260000303060005EBC0003CE0002605F1200763
:101270008DF880609046FFF7B5FF18F1020F11D08E
:101280000020C4E902009DF8800040B30120A8843A
:10129000384600F0A9F9012818BF8DF8806022B007
:1012A000BDE8F081D4E902231A4308BFC4E9020172
:1012B000D4E90223B2EB000C73EB010CE3D2821AE7
:1012C00061EB030042F21071511A70F10000DAD3A1
:1012D00001208DF880000020C4E90200D6E700203C
:1012E000A884384600F080F922B0BDE8F081000003
:1012F000F0000020FFF7A4FD00F005F8FFF798FFCD
:1013000001F0BCFFFAE700B583B002210120ADF87F
:1013100000108DF80800ADF8020002A8019000232B
:10132000012269460220FFF77BFE03B000BD0000EA
:10133000014601A001F0CABA0D0A20657272436F1E
:101340006465203A25780D0A000000007047704758
:10135000002816BF00294FF0FF30002070470028FA
:1013600016BF00294FF0FF3000207047002816BF3D
:1013700000294FF0FF300020704700280CBF4FF0CD
:10138000FF300020704710B1032900DB12B94FF085
:10139000FF3070472DE9F04F83B000241646074612
:1013A000A346ADF80040694600F0CAFF651EA0F5EF
:1013B000005110397CD1BDF80080694607EB080068
:1013C00000F0BEFF062873D1BDF80000804406205F
:1013D00002F086F9306000281CBF002007EB0801EE
:1013E00066D032680B5C1354401CC0B20628F8D398
:1013F00008F10600B0F1FF3F00F0ED8004EB000AB9
:1014000017EB0A0818BF002E7DD0ADF800B0694672
:10141000404600F095FFA0F50051113973D1BDF899
:101420000090694608EB090000F08AFF041E78DD91
:10143000B4F5806F75DABDF800008144601C02F0DD
:101440004FF9706000281CBF002008EB090168D02C
:1014500072680B5C1354401C00B2A042F8DB706849
:1014600000F804B009EB0400B0F1FF3F7CD08244E7
:1014700017EB0A0818BF002E55D0ADF800B069462A
:10148000404600F05DFFA0F5005112394BD1BDF888
:101490000090694608EB090000F052FF041E42DD8F
:1014A000B4F5806F3FDABDF800008144601C00E0B5
:1014B00035E002F015F9B06000281CBF002008EBF1
:1014C000090130D0B2680B5C1354401C00B2A0423A
:1014D000F8DBB06800F804B009EB0400B0F1FF3F9E
:1014E00079D00AEB000817EB080418BF002E14D0BF
:1014F000ADF800B06946204600F022FFA0F500518B
:1015000013390AD100E00CE0BDF80090694604EB05
:10151000090000F015FF042807D028461BE02846E4
:1015200068E72846A0E72846D8E7BDF80000CDF8D0
:1015300004B009EB000160180AD0437802781B045C
:1015400003EB02628378C07802EB0322104401901F
:10155000019A081DF260B0F1FF3F3CD040443F18B3
:1015600018BF002E30D000E035E0ADF800B069467D
:10157000384600F0E5FEA0F50051143924D1BDF83D
:101580000080694607EB080000F0DAFE041E1BDD50
:10159000B4F5806F18DABDF800008044601C02F0DA
:1015A0009FF8306100281CBF002007EB08010BD01A
:1015B00032690B5C1354401C00B2A042F8DB306966
:1015C00008EB040500F804B0B5F1FF3F1EBF002092
:1015D00003B0BDE8F08F3046FFF704FD03B04FF0D5
:1015E000FF30BDE8F08F000070B5050006D0B5F9FA
:1015F00004100029A4BFE888884202DC4FF0FF30C5
:1016000070BD28680024414E8AB2002808BF4FF000
:10161000FF3432D0317911B1012917D02DE002EB1E
:10162000420100EB810040688047032808BF002486
:1016300023D0002818BF6FF001041ED101203071A3
:101640000446FFF7CFFDC6E9040116E002EB4201B4
:1016500030F821C000EB81008168D6E904236046A0
:101660008847040008BF012407D0012C07D0022CB2
:1016700018BF4FF0FF34002030711CB13DE0002452
:101680003471FAE7A888401C80B2A880E9888842B3
:1016900011BF00240020A8800324032C2DD17078D2
:1016A000B178F37801280ABF042900220122012819
:1016B0000CD00021022816BF032801200020052B92
:1016C0001BD2DFE803F0091215172000002914BF10
:1016D00001290121EDD1EDE7002A18BF012002D137
:1016E000084303D109E0F07007E031B10320FAE7C5
:1016F0000420F8E77079012801D0204670BD002051
:1017000070710220EFE70020EDE70000F0000020FC
:1017100038B5104D0020ADF80000EC886946FFF7A1
:1017200047FD002804BF4FF0FF3038BDBDF8001062
:101730008C4203D101206871032038BD04EB4401C1
:1017400030F821004FF4804100F0B2F8601CE880CE
:10175000002038BDF0000020F0B5002585B05249CA
:10176000ADF80C50ADF810502846012651F8202055
:10177000AAB303A90220FFF71BFD002875D0BDF80E
:101780000CC00024BCF1000F33D9802C2DD2464967
:10179000600904F01F0251F82030D34013F0010F0C
:1017A00023D051F8203006FA02F223EA020241F86F
:1017B0002020ADF8005069460220FFF7F9FC002810
:1017C0001CBFBDF800108C4263D204EB440200EB56
:1017D000820130F82200498800F06AF859E0FFE7FA
:1017E000401CC0B20428C1D303E0601C84B264452D
:1017F000CBD32E49002051F82020AAB304A9002001
:10180000FFF7D6FC00284BD0BDF810700021002F48
:1018100046D9802940D2254B4A0901F01F0C53F8C4
:10182000224024FA0CF414F0010F35D053F8224072
:1018300006FA0CFC24EA0C0C43F822C001EB41012F
:1018400003F1100430F8216002A800904FF48041A9
:10185000ADF80450ADF8085001AB04F10802304671
:10186000FFF7F6FA38B114E000E019E0401CC0B20E
:101870000428C0D314E02680BDF8080060806560AD
:10188000BDF804000023401C82B221460B20FFF764
:10189000C7FB05B00020F0BD491C89B2B942B8D3DE
:1018A00005B04FF0FF30F0BDCC040020DC04002078
:1018B00070B584B00646114C002502A80090ADF822
:1018C0000450ADF8085001AB04F108023046FFF7B0
:1018D000BFFA00281CBF04B070BD2680BDF8080008
:1018E00060806560BDF804000023401C82B2214680
:1018F0000B20FFF795FB04B070BD0000EC04002046
:10190000002310B51A4619460520FFF789FB002071
:1019100010BD002310B51A4619460420FFF780FBBE
:10192000002010BD30B51348134D85B00468002C5D
:1019300002BF4FF0FF3005B030BD42F20F00ADF8EE
:1019400000002046FEF722FCADF8020042F20E0035
:10195000ADF808003020ADF80A00019400230222FF
:10196000694642F201000395FFF75AFB05B00020DB
:1019700030BD0000A4000020D43B000830B59BB06F
:1019800000201090119012901390149015901690C2
:1019900017901890394C199042F20700ADF80000EA
:1019A000374D2068FEF7F2FB00285CD02068FEF778
:1019B000EDFBADF802002068019042F20600ADF8A0
:1019C00008006068FEF7E2FBADF80A00606803906B
:1019D00042F20800ADF81000A068FEF7D7FBADF8A2
:1019E0001200A068059042F20900ADF81800E06806
:1019F000FEF7CCFBADF81A00E068079042F20B004E
:101A0000ADF820002069FEF7C1FBADF82200206987
:101A100009901020ADF828006069FEF7B7FBADF81B
:101A20002A0060690B9042F20A00ADF83000286885
:101A3000FEF7ACFBADF8320028680D9042F20C00C6
:101A4000ADF838006868FEF7A1FBADF83A006868A9
:101A50000F9000230822694642F20100FFF7E0FAE6
:101A60001BB0002030BD10A92820FFF7A0FB10A854
:101A7000FEF78CFBADF8020010A89DE7B43B000810
:101A8000CC3B000800B583B042F205010120ADF85F
:101A900000108DF80800ADF8020002A801220190A4
:101AA000002369465003FFF7BBFA03B0002000BDD6
:101AB0002DE9F04F85B0002402A804904F4EADF8F8
:101AC0000840ADF8004069460120FFF771FB06F5BC
:101AD000A069039000280CBF4FF0FF30002073D0A6
:101AE00009F80040401C80B24028F9D3BDF800003E
:101AF000202803D85021B1EB800F05D20720FFF733
:101B000017FC4FF0FF305FE00027ADF804703D4652
:101B1000002888BF4FF0070B4ED9039800EB05143F
:101B20002088B0F5804F62D2606800281CBFA06892
:101B300000285CD006EB451809EB070AA8F800B0AE
:101B40002088524601A900F003FBBDF80400A8F864
:101B50000200C8F804A04FF0010ABDF804000AEB27
:101B60008508074426F838B06068FEF70FFB06EBDF
:101B7000C801488060684860022000EB850826F8AC
:101B800038B0A068FEF702FB06EBC8014880A068E9
:101B90004860032000EB8500082126F8301006EB92
:101BA000C00004F10C01A0F802A04160681C85B2DD
:101BB000BDF800008542B0D380B24FF6FF7101EA54
:101BC000800104980180002000281EBF4FF0FF30E4
:101BD00005B0BDE8F08F0023BDF80820314642F281
:101BE0000200FFF71DFA05B00020BDE8F08F0820C5
:101BF000FFF79EFB4FF0FF30E6E70000EC0400200B
:101C000010B586B000208DF8100012480468002C32
:101C100002BF4FF0FF3006B010BD42F20500ADF834
:101C200000000120ADF8020004A801904FF400501C
:101C3000ADF808002046FEF7A9FAADF80A00022226
:101C40000023694610030394FFF7EAF906B0002069
:101C500010BD0000A00000202DE9F04F85B0002449
:101C600002A80390484DADF80840ADF80040694621
:101C70002046FFF79DFA5FEA000805F5A06A0CBF51
:101C80004FF0FF30002065D00AF80040401C80B2C1
:101C90004028F9D3BDF8000010289CBF00EB40019C
:101CA000502905D90520FFF743FB4FF0FF3051E0E5
:101CB0004FF00009ADF804904F46002844D907EBD7
:101CC000470438F82400B0F5804F56D208EB84065C
:101CD000706800281CBFB06800284ED0092025F885
:101CE00034000AEB090B38F824005A4601A900F029
:101CF0002FFA05EBC400BDF804104180C0F804B011
:101D0000BDF8040004F1010B8144092025F83B00D3
:101D10007068FEF73BFA014605EBCB00A41C41803E
:101D200071684160092125F83410B068FEF72EFA79
:101D3000014605EBC4004180B1684160781C87B260
:101D4000BDF800008742BAD3039980B200EB40008F
:101D50000880002000281EBF4FF0FF3005B0BDE80E
:101D6000F08F0023BDF80820294642F20300FFF758
:101D700057F905B00020BDE8F08F0620FFF7D8FA2C
:101D80004FF0FF30E6E70000EC0400200149087046
:101D900070470000F000002000B585B01049002019
:101DA0008DF800008878002808BF032015D001288E
:101DB0001ABF48788DF8000002200ED00120ADF83F
:101DC0000800ADF80A00CDF80CD00023024602A9A5
:101DD000FFF726F905B0002000BD8DF80000EDE703
:101DE000F0000020F0B4364BDFF8D8C00024197999
:101DF0009CF800701A4602EB8702012909D1DC2801
:101E000018BFDD2805D014821988D181ACF80240B2
:101E10001C712C494E78711C01F00F052849C0280F
:101E200001EB86010DD00126DB2808BF1E7130D0E2
:101E3000DC281FD0DD2802BF1A79012ADB203CD024
:101E40001DE0BCF80200002804BFF0BC70471082FF
:101E5000781C00F00F008CF80000B04204BF0C8228
:101E60008CF80150198803EB8000C181ACF8024066
:101E7000F0BC70471A79012A08BFC0201DD0BCF8F9
:101E80000220521CACF802201A889F68B854501CDB
:101E9000188018889A89904213BF58881C805E80E9
:101EA00001281CBFF0BC70471888CA89904204BF43
:101EB0000C828CF80150F0BC70471C71DFE7000009
:101EC0007C040020E400002010B50146034801F026
:101ED000AFFDBDE8104001F0D1B90000003801406D
:101EE0002DE9F04115460E4607461C0004D0184661
:101EF000FEF74CF9FF2819D823462A4631463846C2
:101F000000F05AF8B0F1FF3F10D080B280280AD21A
:101F1000410900F01F0001228240064850F821309C
:101F20001A4340F821200020BDE8F0814FF0FF3037
:101F3000BDE8F081CC040020002808BF70470329C9
:101F400038BF7047F8B5054600200E46ADF80000D2
:101F50006946284600F0F4F9BDF8004010B10328A6
:101F600015D0F8BD2819694600F0EAF9BDF800104F
:101F7000084404442819694600F0E2F9BDF800104D
:101F800003280C4403D01120FFF7D2F9F8BD28191B
:101F9000694600F0D5F90146BDF80000012920444A
:101FA00018BFF8BD411CB142C8BFF8BD285C01494B
:101FB0008870F8BDF00000202DE9F843804600202D
:101FC0000E46ADF800001F46914669460120FFF716
:101FD000EFF8040059D069460220FFF7E9F85FEAFC
:101FE000000C52D0BDF800507F210020002D0CD9EC
:101FF00004EB00121288B24203D104EB0010017B03
:1020000003E0401C80B2A842F2D30024002D3CD94A
:1020100004EB44003CF82020424532D10CEB800018
:102020004088B0422DD1022918BF012901D049B101
:102030002BE004EB44000CEB8000C0F8049020B2CD
:10204000BDE8F8830FB304EB44000CEB8000456857
:1020500085B13846FEF79AF80104090C4FF00000EC
:1020600005D03A5C2A54401C80B28142F9D820B293
:10207000BDE8F8831320FFF75BF94FF0FF30BDE8B0
:10208000F883601C84B2AC42C2D34FF0FF30BDE88D
:10209000F8830000002808BF7047032938BF704745
:1020A000F8B50F4600260546ADF80060694600F019
:1020B00047F9BDF8004010B1012815D0F8BD281926
:1020C000694600F03DF9BDF80010084404442819A1
:1020D000694600F035F9BDF8001001280C4403D022
:1020E0001020FFF725F9F8BD2819694600F028F9F6
:1020F0000146BDF800000129204418BFF8BD411C6D
:10210000B942C8BFF8BD285C01281EBF02280328B9
:10211000F8BD0D490128487018BFF8BDC8780028DF
:1021200008BFF8BD0020C8700871C880487100F071
:10213000BBFA0649002001EBC002401CC0B29680E9
:102140000528F8D3F8BD0000F000002008010020A9
:1021500080280AD2C0B240F0800000291CBF0123B1
:102160000B80002A18BF10707047C0F3C713802B74
:1021700028BF00200CD23AB123F0800300F07F008A
:10218000137040F080005070002914BF0220704787
:1021900008807047002808BF704703490A880280FA
:1021A0008978817070470000E800002008480749DE
:1021B000C161084901620849416108498161002102
:1021C000C1600172417200F06FBA0000DD220008A8
:1021D00058040020E12100089D0900083908000882
:1021E000002812BF0029002070472DE9F00FDFF80A
:1021F000E4800346002098F801208146102A38BF69
:10220000354F16D207EB820CBCF810C0BCF1000FA2
:1022100005D007EB8200008A88F8012003E0521CF9
:10222000D2B2102AEED300281CBF98F80160102EFD
:1022300003D34846BDE8F00F704707EB86052A8AAE
:10224000032A28BF91420AD2711CA5F8109001F010
:102250000F01484688F80110BDE8F00F7047DFF81D
:1022600078C0EA89B9891418DCF808C0A1420BD3F8
:102270000021002824D954181CF804405C54491C3F
:1022800089B28842F7D81BE0891A00241FFA81FA24
:102290002146002812D9514506D202EB010B1CF849
:1022A0000BB003F801B005E01CF804B0641C03F89F
:1022B00001B0A4B2491C89B28142ECD3A7F80290C4
:1022C000711CA5F8109001F00F0188F80110BDE80D
:1022D000F00F7047E40000207C040020002812BFAB
:1022E0000029002070472DE9F04104460E460329DD
:1022F0003CBF0020BDE8F0812078FFF7E5FD002518
:10230000641CB71E002F15DD2078C02802D0DB2802
:1023100005D008E0DB20FFF7D7FDDC2003E0DB2061
:10232000FFF7D2FDDD20FFF7CFFD681C85B2641CEE
:10233000BD42E9DB2078FFF7C7FD3046BDE8F081FC
:10234000002818BF002913D0027812F0800F1CBF9C
:1023500022F08000012209D14078D20110F0800FD4
:1023600006D020F08000104400B202220A8070479C
:102370004FF0FF30704700002DE9F04385B00500B5
:102380001EBF0026002900224ED005D9AE5402F10E
:102390000100C2B29142F9D8504F28463A6A90479C
:1023A0005FEA000C02BF6FF0010005B0BDE8F083EA
:1023B0002C004FF0FF3317D00022ACF10100114682
:1023C0000028C8BFDFF8188109DD14F8019B491CFB
:1023D00089EA0202C9B218F802208842F5DC2078A6
:1023E000904208BF304600D01846B0F1FF3F1BD0E6
:1023F000ACF1010084B2002D18BF002C19D0ADF84B
:10240000086015F8010B10F0800F12D015F801CB01
:10241000012245B3287810F0800F1CBF20F0800106
:10242000ADF8082009D014E005B04FF0FF30BDE84A
:10243000F08305B01846BDE8F083C101687810F05C
:10244000800F10D020F08000084401B20220ADF8C7
:102450000800B1F1FF3FECD0387C604518D11CF08A
:10246000800F11D101E01946F3E788B2ADF80060A2
:1024700003A9ADF8022001918DF80C604CF08003A7
:1024800001226946FEF7CCFD05B03046BDE8F08379
:1024900087F810C0BDF808002A18201A801E83B2E1
:1024A0001CF0800F11D02CF0800089B2002AEBD0F4
:1024B000DFF830C0ACF800108CF80200D7F818C074
:1024C000BCF1000F18BFE047DEE77C69002CDBD0D1
:1024D00089B22CF08000A047D6E700005804002005
:1024E000903C0008E800002007B582B00022ADF85B
:1024F00000200122ADF802208C4604AA40F080039F
:102500000192012269466046FEF78AFD05B000BDD2
:10251000002814BF00297047B1F5785F88BF704765
:102520002DE9F0470025DFF8B480174606460C4633
:1025300012F0800F18BF914611D198F80900284B6E
:10254000401CC0B21A460021E0FB0321C908A1EBE0
:10255000C1110844C0B288F8090040EA070988F8A8
:1025600008907B2C22D988F80A507B21304600F055
:1025700039F8002818BFBDE8F0870125A4F17B00D9
:1025800084B27B367C2C11D988F80A507C213046E5
:1025900000F028F8002818BFBDE8F087681CC5B215
:1025A000A4F17C0084B27C367C2CEDD845F0800010
:1025B00088F80A002146304600F014F8B0F1FF3FD9
:1025C00008BFBDE8F08717F0800F18BFBDE8F0879F
:1025D0004846BDE8F047FFF7D9BB0000580400208B
:1025E00081402010002818BF002901D07C2902D981
:1025F0004FF0FF3070472DE9F843294D00226E4619
:102600002860A980EA8028461146A0F5207400922F
:102610006254491C89B28029FAD3C0272770817A75
:10262000DFF880806170827A18F80130022132F080
:1026300080022AD08288121DC280B0F804C0002215
:10264000BCF1000F11D9D0F800C01CF802C004F88A
:1026500001C08CEA0303491C521CB0F804C018F8EE
:10266000033092B289B29445EDD8481C80B26354CD
:1026700027543460EA69E9880098904700280CBF25
:102680004FF0FF300020BDE8F883017AA170594077
:1026900018F801308188491DC1800321CDE7000071
:1026A00058040020903C00080B4B0022A3F5097051
:1026B0001A805A801A7198604FF400709881074808
:1026C00002704270104603EB8001401CCA81C0B208
:1026D0000A821028F7D370477C040020E400002011
:1026E000FEE770477047704710B5044601460DA0DD
:1026F00000F0ECF8012C0DD00EA000F0E7F800205F
:1027000000F002FF4021002322460846FFF7E8FBC5
:10271000002010BD0BA000F0D9F8002000F000FF51
:10272000F0E700000D0A2076616C203A25640D0A5E
:10273000000000000D0A204C45445F4F4646200D26
:102740000A0000000D0A204C45445F4F4E200D0A40
:10275000000000000A48016843684A1C43F1000178
:102760000260416001684268114318BF7047816888
:10277000C268491C42F100028160C26070470000DB
:10278000000000203849086840F00100086000207F
:102790004860C862086820F4102020F0807008604B
:1027A0004FF41F008860086820F4802008600A68E1
:1027B000002042F480320A600A68401C12F4003F94
:1027C00002D1B0F5006FF7D1086810F4003F49D08E
:1027D000C86940F08050C8612448026842F4404211
:1027E00002604A684A604A684A604A6842F4806205
:1027F0004A604A6822F440324A604A6842F44032F1
:102800004A604A6822F4701222F090424A604A6894
:1028100042F4501242F000624A600A6842F080724C
:102820000A600A6812F0007FFBD0026842F480322E
:102830000260426812F4803FFBD0026842F400322A
:102840000260426812F4003FFBD0486820F00300A9
:102850004860486840F002004860486810F0080F7F
:10286000FBD07047FEE700000010024000700040FF
:1028700010B5054C0121204601F09BF82046BDE82B
:102880001040012101F090B8002C014070B50C4DB2
:102890000C4C2946204601F042F9002808BF70BDC3
:1028A0002946204601F02FF9074A012120461170E0
:1028B00001F0BAF8BDE87040C0B2FFF793BA00006B
:1028C0000503050000380140100000200FB4C921A5
:1028D00070B5B4B0002439AB6846389A00F046F8B9
:1028E0000E4E6D4611E0295D601CC4B2304601F009
:1028F0009FF80621304601F0EEF80028F9D0C82CE8
:1029000022BF34B070BC5DF814FB6846FDF73EFC96
:102910008442E8D334B070BC5DF814FB004400403E
:10292000FEE7000010B5014602A0FFF7CFFF002030
:1029300010BD00000D0A2057616B65757054696DFC
:102940006554696D654374726C46756E632076617B
:102950006C203D202564200D0A000000014A024938
:1029600000F0D8B855330008CC0100207CB5491ED2
:102970001C461546CDE90001044B6A46214628460F
:1029800000F0DAF8009A002111707CBD673200086F
:1029900002E008C8121F08C1002AFAD17047704728
:1029A000002001E001C1121F002AFBD17047000086
:1029B0002DE9FF5FDDE90220010DDDF838B00243AB
:1029C00018D044F61050A1F2FF3141430D140F9876
:1029D000012820D0A5EB0B00401C5FEA000A4FF055
:1029E0000004474EDFF81C91A046504616D5CAF1A8
:1029F000000728E00F98012443A2012808D00021F5
:102A000000980F9BC0E90021C0E90243BDE8FF9F89
:102A10006FEA0B01F4E7CBF10000DEE7074612E0B6
:102A2000F80707D02246334640464946FDF7A3FC47
:102A3000804689462246334610461946FDF79BFCE0
:102A400004460E467F10002FEAD1DDE90201BAF1FB
:102A5000000F42464B4602DAFDF78DFC01E0FDF720
:102A6000FCFC04460E460022284BFDF77DFD03D8F2
:102A70004FF0FF30014607E00022254B204631464B
:102A8000FDF7D2FBFDF758FD102409E0002C0ADB0E
:102A90000A220023FDF797FB019B30321A55641E72
:102AA00050EA0102F2D1641C019AC4F111031444EA
:102AB0000F9A012A03D0012208430DD10AE00843EE
:102AC00004D000204FF0110B0F9080E7A3EB0B0513
:102AD0006D1E0DE05B4504DD4FF0000205F10105C0
:102AE00004E003DA4FF00002A5F10105002AECD062
:102AF00000980F99C0E90231C0E9004586E700005F
:102B0000000024400000F03F300000000000F043CF
:102B10000000E03F2DE9F04116460F46044600252F
:102B200003E03946B047641C6D1C20780028F8D1BA
:102B30002846BDE8F08100002DE9FF4F95B09B4687
:102B40008946064600250FE2252877D1002427462E
:102B5000F84A0121059400E0044316F8013F203BA8
:102B600001FA03F01042F7D130782A2811D06FF023
:102B70002F033078A0F13002092A16D8059A44F0C4
:102B8000020402EB820203EB42021044761C059021
:102B9000EFE759F8042B0592002A03DA504244F477
:102BA0000054059044F00204761C30782E2816D18B
:102BB00016F8010F44F004042A280DD06FF02F02FC
:102BC0003078A0F13003092B09D807EB870302EB1B
:102BD0004303C718761CF3E759F8047B761C30785A
:102BE0006C280FD006DC4C2817D068280DD06A2836
:102BF00014D104E0742810D07A280FD10DE044F4E9
:102C000000140AE044F4801401E044F440147278A3
:102C1000824202D104F58014761C761C3078662836
:102C20000BD013DC582877D009DC002875D0452854
:102C3000F6D04628F4D047281AD19DE118E0632841
:102C400035D0642879D0652812D195E1702873D0E9
:102C500008DC6728F1D069286FD06E280DD06F2866
:102C600006D1B5E073282CD0752875D0782874D09B
:102C70005A46179990476D1C75E1C4F3025002281B
:102C800009D003280DD0D9F8001004280DD00D600C
:102C900009F1040967E1D9F80010EA17C1E9005207
:102CA000F6E7D9F800100D80F2E70D70F0E719F89B
:102CB000041B8DF8001000208DF80100EA46012069
:102CC00003E059F804AB4FF0FF3061074FF000010B
:102CD00002D40DE008F101018846B9420FDA8045BF
:102CE000F8DB1AF808100029F4D108E008F1010116
:102CF00088468142FADB1AF808100029F6D10598B7
:102D00005B46A0EB080721463846179A00F094FA74
:102D1000284400EB080507E04DE029E10DE01AF832
:102D2000010B5A4617999047B8F10108F7D25B4654
:102D300021463846179A13E142E00A220092C4F372
:102D400002524FF0000A022A08D059F804CB032A95
:102D50004FEAEC710AD00DE029E02AE009F1070101
:102D600021F00702F2E802C1914609E00FFA8CFC5B
:102D70004FEAEC71042A03D14FFA8CFC4FEAEC7154
:102D8000002907DA0A460021DCF1000C61EB0201A0
:102D90002D2202E0220504D52B228DF804200122E9
:102DA00003E0E20701D02022F7E7904659E00A212C
:102DB00002E010220DE010214FF0000A00910BE01C
:102DC00010224FF0000A44F004040827009203E0A8
:102DD00008224FF0000A0092C4F30252022A05D0E2
:102DE00059F804CB0021032A08D009E009F10701B2
:102DF00021F00702F2E802C1914605E01FFA8CFCBF
:102E0000042A01D10CF0FF0C4FF00008220728D54E
:102E1000702806D0009B83F0100353EA0A0305D004
:102E20000EE040228DF80420012208E05CEA010255
:102E300006D030228DF804208DF80500022290463D
:102E4000009B83F0080353EA0A030AD15CEA0102FB
:102E500001D1620705D530228DF804204FF001081A
:102E60007F1E582804D034A003900EA802900DE0D5
:102E700036A0F9E753466046009AFDF7A4F9844668
:102E80000398825C0298401E029002705CEA010086
:102E9000F0D1029806A9081A00F1200A600702D5AD
:102EA00024F4803400E00127574502DDA7EB0A0037
:102EB00000E0002000EB0A01009005984144401A10
:102EC0000590E00306D45B462146179A059800F06A
:102ED000B3F90544002706E001A85A46C05D1799DA
:102EE00090476D1C7F1C4745F6DBE0030CD55B4625
:102EF0002146179A059800F09FF9054404E0302018
:102F00005A46179990476D1C0099481E0090002959
:102F1000F5DC08E0029802995A460078491C0291B3
:102F2000179990476D1CBAF10001AAF1010AF1DC72
:102F300065E100000928010030313233343536377D
:102F400038396162636465660000000030313233F5
:102F50003435363738394142434445460000000095
:102F600000F058F90544761C307800287FF4ECAD69
:102F700019B02846BDE8F08F620700D4062709F192
:102F8000070222F0070CFCE80223E14603F00048A8
:102F90005FEA080C02D00FF2702C0DE05FEA045CCF
:102FA00002D50FF2682C07E05FEAC47C02D00FF272
:102FB000602C01E0AFF2700C4FF0FF3823F00043BB
:102FC000CDF850C065280CD006DC452809D046282D
:102FD0001DD047283DD13DE0662818D067287ED116
:102FE00038E00021112F01DB112000E0781CCDE931
:102FF000000106A90EA8FFF7DBFCDDE90F010E9A20
:1030000003910021009207F1010A04914DE04FF075
:1030100000400097CDE9011006A90EA8FFF7C8FCF3
:10302000DDE90F0203920E9B11990022DDF80CA03E
:103030000093049211B9791C00EB010AB7EB0A0066
:1030400004D4C0F1FF3007F1010A0490AAEB070095
:10305000019044E0012F00DA01270021112F01DD4A
:10306000112000E03846CDE9000106A90EA8FFF7BF
:103070009FFCDDE90F010E9A03910021049100925B
:10308000BA4621070CD40399514500DA8A46BAF1B1
:10309000010F05DD009AAAF10101515C302908D029
:1030A000B84202DA10F1040F06DA0121CDE901106D
:1030B00015E0AAF10101E9E7002805DC04990144C3
:1030C0000491AAEB000102E0411C514500DD8A4653
:1030D0000499401A401C01904FF0004002902007D4
:1030E00004D40198504501DBCDF8048000208DF810
:1030F0004F0002980DF14F07B0F1004F25D02B2063
:103100000E9002984FF0020800280CDA404202901C
:103110002D200E9007E00A210298FDF73EF830318D
:10312000029007F8011DB8F10001A8F10108F2DCD6
:1031300002980028EFD1791E0E980870307800F0C0
:10314000200040F0450007F8020D12A8C01B00F156
:1031500007081498007800B1012000EB0A010198DB
:1031600001EBE07105984144401A401E0590E003D0
:1031700006D45B462146179A059800F05DF8054491
:103180001498007818B15A46179990476D1CE003BF
:1031900024D55B462146179A059800F04DF8054462
:1031A0001CE00498002807DBDDE90301884203DD09
:1031B0000098405C179901E0179930205A469047D3
:1031C000049805F10105401C04900198401E0190EF
:1031D00004D12E205A46179990476D1CBAF1000170
:1031E000AAF1010ADDDC05E017F8010B5A46179930
:1031F00090476D1CB8F10001A8F10108F4DC5B46B2
:103200002146179A0598ABE62D0000002B00000020
:10321000200000002DE9F041044600251E46174617
:10322000880404D405E039462020B0476D1C641E94
:10323000F9D52846BDE8F0812DE9F0410446002586
:103240001E469046C80301D5302700E02027880499
:1032500004D505E041463846B0476D1C641EF9D5DB
:103260002846BDE8F0814A68002A06D00A68531C47
:103270000B6010704868401E4860704700220021B3
:103280000020401C3228FCDB491C3229F8DB521C90
:10329000642AF4DB7047000070B4224D2B6883432E
:1032A0002B602C1D236883432360231DD3F800C0AB
:1032B0002CEA000CC3F800C003F1040CDCF8006039
:1032C0008643CCF8006011B1012904D006E02968DA
:1032D0000143296002E02168014321607AB1012A9B
:1032E00015D0022A1CBF70BC7047196801431960D1
:1032F000DCF800100843CCF8000070BC7047196877
:1033000001431960DCF8001021EA0000F3E71968B6
:1033100081431960DCF800100843CCF8000070BC51
:103320007047000000040140014908607047000038
:103330001404014005490968054A0142126802EA7D
:10334000000016BF0028002001207047140401402F
:103350000004014070B5074D0446C1B2284600F094
:1033600067FB0721284600F0B6FB0028F9D020466D
:1033700070BD00000038014010B5002821D0114B6D
:103380000022001F196803E0814203D80A464968F9
:103390000029F9D152B11368841A9C4204D1006803
:1033A00018441060104602E0506000E0186039B127
:1033B00002680B1A934203D10B681A4402604968F1
:1033C000416010BDD001002070B505460024A0F179
:1033D0008040B0F59C3005D0A5F18040B0F5884024
:1033E00008BF0124194830F8140000F093FA184877
:1033F00030F8140000F08EFA1648032200F110068F
:1034000050F8243056F82400182100F0EFF8A6F107
:103410000800032250F8243056F82400042100F05C
:10342000E5F8284600F008FB4FF4E131284600F0AB
:10343000C9FA0421284600F089FB0821284600F03B
:103440008BFB2846BDE8704000F040BB1600002012
:10345000120000201C00002070B5044617480D46DD
:1034600030F8140000F056FA4FF4C06000F052FA41
:1034700013480322042150F824300C3850F824005B
:1034800000F0B4F8012D18BF70BD0E4800220221D3
:10349000005D00F05BF90C48015DC01E005D00F0AE
:1034A00069F80A4D0122002155F82400FFF7F4FEC7
:1034B00055F82400BDE87040FFF736BF72000020C9
:1034C000840000206E0000206B000020900000208F
:1034D00070B504460A4830F8140000F01BFA094E93
:1034E0000322A6F1100556F8243055F824001021C7
:1034F00000F07CF855F8241056F82400486170BD9F
:1035000040000020580000200349044A51F82010D0
:1035100052F8200041617047580000204800002008
:103520000349044A51F8201052F820000161704705
:10353000580000204800002070B50A4E0446A6F14D
:10354000100556F8241055F8240000F09BF8C0F13F
:103550000100C2B256F8241055F82400BDE87040AE
:1035600000F002B858000020002A14BF0161416138
:10357000704700008A07130F0F229A40DFF868C0D7
:10358000984004290AD2DCF808109143CCF80810BE
:10359000DCF808100843CCF80800704708290AD264
:1035A000DCF80C109143CCF80C10DCF80C1008433C
:1035B000CCF80C0070470C290AD2DCF810109143AB
:1035C000CCF81010DCF810100843CCF8100070474D
:1035D000DCF814109143CCF81410DCF814100843F4
:1035E000CCF8140070470000000001402DE9F00104
:1035F00001F00F0C11F0100F04D0042A18BF4CEA90
:10360000020C39D0002201260F2706FA02F41C42D0
:1036100010D00568940007FA04F825EA08050CFAAA
:1036200004F42C43282908BF436102D0482908BF6D
:1036300003610460521C92B2082AE6D3082206FAFB
:1036400002F41C4211D045689400203C07FA04F8AB
:1036500025EA08050CFA04F42C43282908BF436125
:1036600002D0482908BF03614460521C92B2102A5C
:10367000E5D3BDE8F0017047C26B4CF0030C1A4370
:10368000C263BFE78068084018BF01207047000090
:1036900010B500F06BF900F069FA00F063FA00F081
:1036A00071FA05A0FFF712F908A0FFF70FF9FDF76F
:1036B00021FE002010BD00000D0A20C8EDBCFEBF99
:1036C000AACABCC1CB200D0A000000000D0A202DA3
:1036D0002D2D2D2D2D2D2D2D2D200D0A000000001E
:1036E000F0B50B30154D20F007010024144A0FE00F
:1036F00003688B420BD38B4205D95E1A4318476887
:10370000C3E9006700E04368136002C004E0021DE3
:1037100010680028ECD12046002802D1286808B1A2
:103720000020F0BD064A07481060074A121A22F02E
:103730000702C0E9002401202860D7E7D401002057
:10374000D0010020340A0020300E002070B4274C35
:103750004FF0000C63462568660D36EA050508BF84
:10376000042325D0256805F4E065B5F5C06F04BFD6
:103770004FF0010C03231BD0256805F4E065B5F577
:10378000A06F04BF4FF0020C634611D0256805F40A
:10379000E065B5F5806F04BF4FF0030C012307D03F
:1037A000246804F4E064B4F5407F08BF4FF0040CD3
:1037B000CCF1040C01FA0CF1C3F104034FF00F0C2F
:1037C0002CFA03F31A40114300F1E022090182F8B8
:1037D000001400F01F01012202FA01F140098000EB
:1037E00000F1E020C0F8001170BC70470CED00E063
:1037F00030B440A188B091E816108DE816103EA1B3
:10380000404DD1E90021CDE904213BA10346D1E996
:103810000021CDE9062169680020C1F381013A4AFF
:10382000002918BF012927D0022925D16968DFF8AE
:10383000DCC001F48031B1F5803F4ED0624669684A
:10384000D5F804C0C1F383411CF0006F18BF41F0EC
:103850001001D5F804C01CF0804F18BF41F02001C2
:103860000F2938BF891C06D3A1F10F0CBCF12F0F13
:1038700094BF491C3F214A436968D5F804C0C1F38D
:1038800003111DF8011022FA01F1CCF3022C04AC53
:1038900014F80CC021FA0CF4D5F804C006ADCCF332
:1038A000C22C15F80CC021FA0CFC002B01BF1046ED
:1038B00008B030BC7047012B01BF084608B030BCCF
:1038C0007047022B01BF204608B030BC7047032B65
:1038D00008BF604608B030BC7047E96A11F0804FFD
:1038E00018BF0B4A696801F40031B1F5003FA6D159
:1038F000A4E7000000000000000000000102030433
:10390000060708090010024000127A0000093D0075
:10391000006CDC02810901F1804101F504310A6883
:1039200000F01F00012303FA00F010430860704705
:10393000810901F1804101F504310A6800F01F009E
:10394000012303FA00F022EA0000086070478109B1
:1039500001F1804101F504310A6800F01F000123E4
:1039600003FA00F010430860704700000C484FF461
:103970007A710068B0FBF1F0401EB0F1807F0DD28B
:103980004FF0E02148610748F02280F8142D002212
:103990008A6107230B6180F8142D7047FEE7000051
:1039A0009C0000200FE000E0026922EA01010161B1
:1039B0007047C26800690A40084216BF002A00200A
:1039C0000120704770B5174A0D4604460021801A41
:1039D000944214D008DCA4F18040B0F5884018BFB0
:1039E000B0F5806F0FD10AE0B0F5806F07D0B0F569
:1039F0006C4F08D10320FFF7FBFE014603E00220D5
:103A0000FFF7F6FE014601EB5500B0FBF5F04FF66F
:103A1000F0710140A26800F00F0008431043A0605D
:103A200070BD0000004C00404068C0F308007047C3
:103A3000C1F3080141607047234A10B5811A9042D2
:103A40002ED012DCA0F58840B0F180401ED0B0F539
:103A5000806F18BF10BD40F21240FFF778FFBDE83D
:103A6000104040F21240FFF763BFB1F5806F21D0E4
:103A7000B1F56C4F18BF10BD40F20E30FFF767FF75
:103A8000BDE8104040F20E30FFF752BF40F2114047
:103A9000FFF75DFFBDE8104040F21140FFF748BF5F
:103AA00040F21340FFF753FFBDE8104040F21340CF
:103AB000FFF73EBF40F21440FFF749FFBDE810405A
:103AC00040F21440FFF734BF004C0040C16841F49D
:103AD0000051C160704700EB9110006801F01F01B8
:103AE000012202FA01F1084018BF01207047C1F31A
:103AF0008912835801F01F014FF0010C0CFA01F1FB
:103B000019438150704700EB91500268C1F30441A2
:103B1000012303FA01F122EA010101607047C1F3B8
:103B20008912825800EB915001F01F0C012303FA17
:103B30000CFC006802EA0C02C1F3044103FA01F133
:103B4000084216BF002A002001207047C26822F0F8
:103B500004021143C1607047C26822F00802114399
:103B6000C160704701210846FFF776BC10B5002000
:103B7000FFF7AEFC0120FFF7ABFCBDE810400220D0
:103B8000FFF7A6BC10B5002211462520FFF7DEFD89
:103B9000064C2046FFF718FC0548FFF715FC2046A9
:103BA000BDE8104040F20531FFF7A1BF00380140E9
:103BB00000440040BC3D0008A43D0008B43D00089E
:103BC000B03D0008AC3D00089C3D0008C83D000821
:103BD000C03D00082B243A5B2C43523D2272306BCF
:103BE0002C2A6C3290F42D157DC3AA89B837293F51
:103BF00002AC65B4A6A9A26965CE42D0AB010ABBEE
:103C00009B6A04414000000000400008004000089A
:103C10004100000008400008084000084200000081
:103C2000F43F0008F43F000843000000E83F0008AC
:103C3000E83F000844000000D43F0008D43F0008DB
:103C40004000000000400008204000080100000083
:103C50004100000008400008084000080200000081
:103C600042000000F43F0008144000080200000079
:103C700043000000E83F0008144000080200000074
:103C800044000000D43F00081C400008020000006F
:103C900000070E091C1B1215383F363124232A2D2C
:103CA00070777E796C6B6265484F464154535A5D1C
:103CB000E0E7EEE9FCFBF2F5D8DFD6D1C4C3CACD0C
:103CC00090979E998C8B8285A8AFA6A1B4B3BABDFC
:103CD000C7C0C9CEDBDCD5D2FFF8F1F6E3E4EDEAEC
:103CE000B7B0B9BEABACA5A28F88818693949D9ADC
:103CF0002720292E3B3C35321F18111603040D0ACC
:103D00005750595E4B4C45426F68616673747D7ABB
:103D1000898E878095929B9CB1B6BFB8ADAAA3A4AB
:103D2000F9FEF7F0E5E2EBECC1C6CFC8DDDAD3D49B
:103D3000696E676075727B7C51565F584D4A43448B
:103D4000191E171005020B0C21262F283D3A33347B
:103D50004E49404752555C5B7671787F6A6D64636B
:103D60003E39303722252C2B0601080F1A1D14135B
:103D7000AEA9A0A7B2B5BCBB9691989F8A8D84834B
:103D8000DED9D0D7C2C5CCCBE6E1E8EFFAFDF4F33B
:103D900056433030312E30312E303100312E302E1E
:103DA0003000000032305930000000003439380053
:103DB0003031420071795F7377000000000000002D
:103DC00058636C65610000004C616D70000000007C
:103DD0003635343535424444453338313846343449
:103DE0004431443244313737363232454144394424
:103DF0003333363945463732394630324244374517
:103E0000463135373046353137423933314445450F
:103E10004430363132363339333238303645423633
:103E200046383046303835443744363731373844F1
:103E300034413846333733383933314541304632EF
:103E400030383934384546434343413233364444AD
:103E500035313638323039343636444442324632DF
:103E600039343742374531314337453436434134AD
:103E700030424435353532344536333146423935B2
:103E80003546414433334544373146353330463384
:103E90004346413942393344354442323043344653
:103EA0003236333533424239353546423537323092
:103EB00032323735323638363637363433413435A8
:103EC000444630374638333431344439314645443A
:103ED000313441313745414136383637313230445B
:103EE000314539334641313937423536334232353F
:103EF0003233394336413931303130313046324551
:103F0000334342394344343437343035323337372E
:103F10003330364236324232383630423934463027
:103F200042353041464233354534363132363141FF
:103F300030433836364532433735414642313246D2
:103F4000333342353642393033353637303439330E
:103F500039334139384435303843424243383844A4
:103F600035303137453946314638444438383638AB
:103F7000354545313646424238424441354439316F
:103F80003946333637464638463136334646394564
:103F900037313444323831323837343034303245C6
:103FA0004434364344393244343233364431413276
:103FB000444239353634463741304646313245364B
:103FC000463836413942364343393444343534383F
:103FD00000000000636F6D6D6F6E457865637574EA
:103FE000696F6E31000000006661646554696D653B
:103FF0000000000077616B65757054696D650000A5
:1040000073776974636800006272696768746E65CB
:104010007373000074696D6500000000616374696A
:104020006F6E00004440000800000020D80100002E
:10403000D806000830410008D801002058100000C0
:10404000A02900080110120130090E06110702060E
:10405000020622024204190542083C0801400418E5
:104060000A0102030405060708091B2C06040601C1
:10407000111A101829044A18044A013719503947EF
:1040800019051201160D0E0628281A02323B0306E6
:104090004829304A0C2C1132204A4030690C111644
:1040A0000E2707903D1B08D0043A40112113E92642
:1040B0001308415241133107130842524213252974
:1040C00013084352431AF518124452441A710CE172
:1040D00039D201112B30017612023A480812073A00
:1040E0009C0812015AA8085AB420293E1313191427
:1040F00008F10D2B0805E0590C39264A1C0C1A0151
:104100000C5A2518290C5A7D0C1A030C5A59241ADA
:10411000020C8BB11A3C5A850CA95432014B991DE3
:104120000C320B8B11170C5A590CB984B1000000DA
:0400000508000131BD
:00000001FF
